:060000000A128A110E280D
:10000800FE00030EF7000408F8000A08F9000A12B7
:100018008A11472B0A128A111128F001F101F20105
:10002800F301F40183120313D801D901DA01DB01CA
:10003800DC01DD01DE01DF0183010A128A11BD2A1C
:100048008312031335088039B6003608BF00350817
:10005800B6003607B7003708C600B41F342835285D
:1000680036284614460803193A283B284B28460ADE
:10007800031D3F28402848280030B5000030B40050
:100088000030B3000030B200B417B5015328003077
:10009800B5000030B4000030B3000030B2003108C1
:1000A8008039B6003608BF063108B6003607B700F3
:1000B8003708C700B01F612862286328471447081B
:1000C8000319672868287828470A031D6C286D28B3
:1000D80075280030B1000030B0000030AF000030AB
:1000E800AE00B017B10180280030B1000030B00078
:1000F8000030AF000030AE00310830042F042E0469
:10010800031D87288828A1280030B5000030B400D6
:100118000030B3000030B2008030B4047F30B50442
:100128003F08B6003608B5043508B1003408B000F9
:100138003308AF003208AE00002A4608031DA52880
:10014800A628AF280030B1000030B0000030AF0062
:100158000030AE00002A4608B600B7013708B900DB
:1001680047083602B800031CB90338087F3EC000B0
:1001780039080318013E003EC1003508BE003408A6
:10018800BD003308BC003208BB000030B5000030A9
:10019800B4000030B3000030B2000030C5000030B9
:1001A800C4000030C3000030C200C7012529470839
:1001B8000319DF28E02800290130B6000310BB0D21
:1001C800BC0DBD0DBE0DB60BE2280130B600031004
:1001D800B20DB30DB40DB50DB60BEB28C51FF52840
:1001E800F628F72832140130B6000310C20DC30DEB
:1001F800C40DC50DB60BF92831083E02031D0E29A2
:1002080030083D02031D0E292F083C02031D0E294C
:100218002E083B02031C11291229212945172E08F3
:10022800BB022F08031C2F0FBC023008031C300F21
:10023800BD023108031C310FBE020130B60036087A
:10024800C7071A304702031C2A292B29DB283E0836
:100258003D043C043B040319322933295229421432
:1002680052290130B6000310B20DB30DB40DB50D0F
:10027800B60B3729C51F41294229432932140130B9
:10028800B6000310C20DC30DC40DC50DB60B45292C
:10029800FF30C0070318C10AFF30C107B41F552932
:1002A80056293529C701C51F5A295B297729FF30E7
:1002B8004205B600FF304305B700FF304405B800DB
:1002C8007F304505B9003908380437043604031966
:1002D8006E296F297229C701C70A7729321C752927
:1002E800762977296F29470803197B297C29AD29A5
:1002F8000130B207003003180130B307003003188B
:100308000130B407003003180130B507351C8D29BA
:100318008E29AD293208B6003308B7003408B80072
:100328003508B9000130BA00390DB90CB80CB70C52
:10033800B60CBA0B98293908B5003808B400370844
:10034800B3003608B2000130C0070318C10A0030F4
:10035800C1074108803AFF0080307F02031DB6299B
:10036800FF304002031CB929BA29C829FF3083127B
:100378000313C0000030C1000030B5000030B400E5
:100388000030B3000030B200831203134108803AF2
:10039800FF0080307F02031DD3290130400203187B
:1003A800D629D729E42983120313C001C1010030DB
:1003B800B5000030B4000030B3000030B200BF0117
:1003C800831203134008B6003608C600461CED2900
:1003D800EE29F029B417F4297F30B6003608B405A1
:1003E8004608B6000310360CB7003708B5003F08BA
:1003F800B6003608B5049828080083120313A8002D
:1004080028080319082A092A1D2AA31F0C2A0D2ABD
:100418001D2A2009AA002109AB002209AC002309E2
:10042800AD00AA0A0319AB0A0319AC0A0319AD0AED
:10043800252A2308AD002208AC002108AB002008BB
:10044800AA002308220421042004031D2C2A2D2A93
:10045800362A0030A3000030A2000030A10000308E
:10046800A000BC2A9630A4002408A900482A01301C
:10047800A4002408A90701300310AD0CAC0CAB0C88
:10048800AA0CFF3E031D402AFE302D05031D4D2AF0
:100498004E2A3B2A6A2A0130A4002408A907013001
:1004A800AA07003003180130AB07003003180130E9
:1004B800AC07003003180130AD0701300310AD0C54
:1004C800AC0CAB0CAA0CFF3E031D622AFF302D05B5
:1004D800031D6F2A702A4F2A7C2A0130A902013095
:1004E800A4000310AA0DAB0DAC0DAD0DA40B752A1D
:1004F800AC1B7F2A802A862A023029020318852A03
:10050800862A712A2918892A8A2A922AFF30AA0556
:10051800FF30AB057F30AC05FF30AD050310A90CEB
:100528002908A400A501A601A70118300310A40DED
:10053800A50DA60DA70DFF3E031D9A2A2408AA049F
:100548002508AB042608AC042708AD0428080319BD
:10055800AE2AAF2AB42AA31FB22AB32AB42AAD17E7
:100568002D08A3002C08A2002B08A1002A08A0002F
:1005780008000A128A11DF240A128A117403031D63
:10058800C62AC72AD92A831203138618CC2ACD2A49
:10059800D92A0130D6005608F307F4010230730255
:1005A800031CD72AD82AD92AF3017303031DDD2A8D
:1005B800DE2AFB2A8312031309140715033083125A
:1005C8000313D7009730D600D60BE82AD70BE82AB2
:1005D80083120313091007112F3083120313D70056
:1005E800BF30D600D60BF62AD70BF62A192B831262
:1005F800031309140715063083120313D7002F308D
:10060800D600D60B052BD70B052B0A2B8312031309
:10061800091007112D3083120313D7002530D60097
:10062800D60B142BD70B142B192B0A128A11422420
:100638000A128A118316031307157108803AFF00FE
:1006480080307F02031D2A2B1A307002031C2D2BC9
:100658002E2B312B831603130711700883120313F3
:1006680088007203031D392B3A2B3F2B8316031383
:1006780009140715C22A8316031309100711C22A81
:100688000A128A110E280B1C4A2B4B2B612B512B5B
:10069800F401602BF401F40A602B8312031306089B
:1006A800F500F6017608003A03195B2B4C2B750808
:1006B800FD3A03194E2B4C2B0B10831203138C1D80
:1006C800662B672BBD2B1412141B6B2B6C2B702BFA
:1006D800941F6F2B702B772B1308F5007508F20009
:1006E80014139413141683160313941A7C2B7D2B5E
:1006F8009A2B1419802B812B9A2B8312031313081E
:10070800F5007508F2008C11141683160313141CD7
:100718008E2B8F2B892B831203131308F500750872
:10072800F2008530F500F50B972BBA2B941A9D2B08
:100738009E2BBA2B141DA12BA22BBA2B83120313A9
:100748001308F5007508DD008316031314107008EC
:1007580083120313930014168530F500F50BB22BA2
:10076800831603131418B92BBA2BB42B8312031353
:100778008C1179088A0078088400770E8300FE0EB1
:100788007E0E09000310831203134A0D4B0DCC0093
:100798004C08D2005208031DD22BD32BDC2B00307F
:1007A800CB000030CA000030C9000030C800412C1E
:1007B8004808CC004908CD004A08CE004B08CF00B5
:1007C8001F300310CF0CCE0CCD0CCC0CFF3E031DFC
:1007D800E52B4C08D0005008D100CA17FF30C805D7
:1007E800FF30C905FF30CA050030CB059630D2026C
:1007F800D21FFF2B002C1A2C5208803A973E031860
:10080800062C072C082CD32B01300310CB0CCA0C58
:10081800C90CC80CFF3E031D092C0130CC004C0844
:10082800D207031D182C192C082C312C2030520209
:10083800031C1F2C202C2C2CD32B0130CC00031094
:10084800C80DC90DCA0DCB0DCC0B232C0130D2021B
:100858005208031D302C312C212C51080319352C3A
:10086800362C412CC809C909CA09CB09C80A031979
:10087800C90A0319CA0A0319CB0A08008312031309
:100888009F18472C482CA52C1E08D30003300310B2
:10089800D30CFF3E031D4B2C5308831603131E076E
:1008A80083120313D400D501D50D5408D800550878
:1008B800D9005808A0005908A1000030A11BFF303A
:1008C800A200A30001300A128A1101220A128A1119
:1008D800831203132308B5002208B4002108B300CB
:1008E8002008B2004030B1000230B000F130AF0053
:1008F800AA30AE000A128A1124200A128A11831221
:1009080003133108CB003008CA002F08C9002E088D
:10091800C8000A128A11C6230A128A118312031305
:100928004908F1004808F000033083120313D4008B
:100938009730D300D30B9E2CD40B9E2C8312031319
:100948009F14080083120313A200C82C83160313F4
:100958000F088F3940388F000F14DE2C83160313CD
:100968000F088F3950388F000F14DE2C83160313AD
:100978000F088F3960388F000F14DE2C7030831603
:1009880003138F040F14DE2C2208A000A1012108F4
:10099800003A0319D02CDE2C2008013A0319AA2C9E
:1009A800033A0319B22C063A0319BA2C0C3A031964
:1009B800C22CDE2C0800831603178801890108144D
:1009C8008316031386140711880109108312031371
:1009D80086018801890108300A128A11A6240A12A0
:1009E8008A110A128A1126250A128A1160300A12FF
:1009F8008A110A250A128A11831603138113951482
:100A08008B170B178B150B10961408008312031302
:100A1800A0002008831603139300363083120313B3
:100A280094008030831603139400013091008715D9
:100A380007168B170B17831203138C1183160313D6
:100A48008C150800831603139F171F129F123F303F
:100A5800831203139F05C3309F054130831203138C
:100A6800A000A00B352D382D831203131F14080086
:04400E00D420FF3F7C
:00000001FF
